S31508000000F87D0120ED0F0008F50F0008F50F000830
S31508000010F50F0008F50F0008F50F00086E2900F027
S315080000206F82702900F0B9836629AFF300806529CD
S31508000030AFF300806729AFF300806129AFF3008032
S3150800004003681B0A28BF41F08001692900F01C8259
S31508000050642900F01982752900F016826F2900F0CC
S315080000604683782900F08583E92900F0E182E429AE
S3150800007000F0DE82F52900F0DB82EF2900F04383E9
S31508000080F82900F084830368DB0928BF41F0800162
S31508000090632900F06885732900F06D85E32900F06F
S315080000A07885F32900F07D850020704770470000A9
S315080000B07CB51D4616460C00009001D02044401E13
S315080000C0074B7B442A4669460190304600F031FAD0
S315080000D005461CB10020694600F03EFA28467CBD5C
S315080000E09D04000040EA010310B59B070FD1042ABE
S315080000F00DD310C808C9121F9C42F8D020BA19BAE5
S31508000100884201D9012010BD4FF0FF3010BD1AB149
S31508000110D30703D0521C07E0002010BD10F8013B9E
S3150800012011F8014B1B1B07D110F8013B11F8014BC5
S315080001301B1B01D1921EF1D1184610BD032A40F2AD
S31508000140308010F0030C00F0158011F8013BBCF16B
S31508000150020F624498BF11F801CB00F8013B38BF83
S3150800016011F8013BA2F1040298BF00F801CB38BF91
S3150800017000F8013B11F0030300F0DE83083AC0F0F3
S31508000180088051F8043B083A51F804CBA0E8081057
S31508000190F5E7121D5CBF51F8043B40F8043BAFF38A
S315080001A00080D20724BF11F8013B11F801CB48BFE4
S315080001B011F8012B24BF00F8013B00F801CB48BF1A
S315080001C000F8012B7047431A28BF9A427FF6B6AF4C
S315080001D0032A1044114440F2268010F0030F1EBF74
S315080001E011F8013D521E00F8013D10F0030F7FF48F
S315080001F0F6AF11F0030300F0E483083AC0F00B8071
S3150800020051F8043D083A51F804CD40F8043D40F849
S3150800021004CDFFF7F3BF121D5CBF51F8043D40F84B
S31508000220043DAFF30080D20724BF11F8013D11F851
S3150800023001CD48BF11F8012C24BF00F8013D00F894
S3150800024001CD48BF00F8012C704702F0FF0343EACE
S31508000250032242EA024200F002B84FF000020429E3
S31508000260C0F0128010F0030C00F01B80CCF1040CD7
S31508000270BCF1020F18BF00F8012BA8BF20F8022B0B
S31508000280A1EB0C0100F00DB85FEAC17C24BF00F8B1
S31508000290012B00F8012B48BF00F8012B70474FF0DF
S315080002A0000200B5134694469646203922BFA0E8B8
S315080002B00C50A0E80C50B1F12001BFF4F7AF0907C4
S315080002C028BFA0E80C5048BF0CC05DF804EB8900B5
S315080002D028BF40F8042B08BF704748BF20F8022BF8
S315080002E011F0804F18BF00F8012B704710B504466F
S315080002F010F0030F08BF11F0030F40F015804FF000
S31508000300013E121FC0F20E8051F8043BA3EB0E0CFF
S315080003102CEA030C1CEACE1C08BF40F8043BF0D0BC
S31508000320A1F1040102F10402521E08DB11F8013B97
S31508000330002B00F8013BF7D11146FFF78EFF204648
S3150800034010BD00004FF0013C50F8042B51F8043B57
S315080003509A4221D1A2EB0C03934313EACC1317D18B
S3150800036050F8042B51F8043B9A4215D1A2EB0C0322
S31508000370934313EACC130BD150F8042B51F8043BE2
S315080003809A4209D1A2EB0C03934313EACC13DBD0B0
S315080003904FF00000704700BFD01A01BAB1FA81F1D8
S315080003A001F0180122FA01F0CB40C1F12001DBB2BD
S315080003B0C0B2C01A2CFA01F3D11A914311EAC3113B
S315080003C0E6D1704770B5044685690068C10601D54F
S315080003D0302600E02026C00707D070BDD4E90121E9
S315080003E030469047206A401C20626D1EF6D570BDC7
S315080003F070B5044685690078C00707D170BDD4E991
S31508000400012120209047206A401C20626D1EF6D5E7
S3150800041070BD09684A0501D540B27047C905FCD5C3
S3150800042000B2704709684A0501D5C0B27047C905C8
S31508000430FCD580B2704770B50C460546012A05D032
S315080004402878800600D5EA69002302E0012305E042
S315080004505B1C934202D2E05C0028F9D1A869E61831
S31508000460C01AA861286A184428622846FFF7AAFF16
S3150800047004E0D5E9012114F8010B9047B442F8D3FA
S315080004802846FFF7B5FF70BD2DE9F0410646002462
S3150800049010687529314616A510D0FFF7BAFF00284F
S315080004A002DA404213A507E031688A0701D512A58A
S315080004B002E0490704D511A5012401E0FFF7B2FFC0
S315080004C000210A2206F1240709E0B0FBF2FCB0FB82
S315080004D0F2F302FB1C00303078541846491C0028F9
S315080004E0F3D123462A463046BDE8F04100F0D8BA93
S315080004F0000000002D0000002B0000002000000076
S3150800050011680268006A530501D508700AE0D30528
S3150800051001D5088006E0130603D5C217C1E9000213
S3150800052000E008600120704701694A1C02610878EA
S31508000530704700B58FB0CDE9013100210591054915
S315080005407944CDE903101146684600F031F90FB039
S3150800055000BD0000E5FFFFFF0A6802F8010B0A600C
S315080005607047D1E900239A4202D2531C0B601070DF
S31508000570704700002DE9FF5F15468A460446DFF8F6
S31508000580AC80F8440027D8E900103E46CDE90010B3
S3150800059010E03AF816106A4602A800F006FB411C5D
S315080005A007D02178890603D5E269391891420DD812
S315080005B00744761C2078800602D5E069B84205DD36
S315080005C0AE42E6DB3AF816000028E2D1A069C01B65
S315080005D0A0612046FFF7F6FED8E90010CDE9001025
S315080005E0002017E03AF818106A4602A800F0DDFA6B
S315080005F0B0F1FF3F81460BD000250DF1080B05E051
S31508000600D4E901211BF8050090476D1C4D45F7D329
S3150800061008F10100B0428046E4DB206A38442062D3
S315080006202046FFF7E5FEBDE8FF9F0000B66D000017
S315080006302DE9F0418046D21D22F007020025D2E9B5
S315080006400002F52915A614D0011E72F1000106DA7A
S315080006500023D0EB030063EB020211A608E0D8F8EA
S3150800066000108B0701D50FA602E0490701D50EA693
S3150800067001251146002408F1240704E000F0CBF90F
S3150800068030323A55641C50EA0102F7D12B463246FD
S3150800069021464046BDE8F04100F002BA00000000DD
S315080006A02D0000002B0000002000000030B40021BF
S315080006B000F1240408E002F00705D208303542EAC2
S315080006C04372DB086554491C52EA0305F3D10468F2
S315080006D0002310A2250707D5A40600D421B1C469B2
S315080006E001230DA2641EC46130BC00F0D9B910B54F
S315080006F0044621461068FFF795FE02462046BDE8E7
S3150800070010400023D2E7D21D22F00701D1E90023C9
S31508000710CCE700000000000030000000F0B40D46F1
S315080007200188090502D5214C7C4402E01F4C7C4413
S315080007300E34002100F1240608E002F00F07120922
S31508000740E75D42EA03721B097754491C52EA03071C
S31508000750F3D102780023120704D5702D06D009B10B
S31508000760022311342246F0BC00F09AB90123103452
S31508000770F8E770B504460D4621461068FFF752FEA5
S31508000780024629462046BDE870400023C6E7D21D2A
S3150800079022F00703D3E90023C0E70368126843F091
S315080007A0200303600823C3610023B7E7186C000021
S315080007B02DE9F05F894604464FF0000ADFF874B168
S315080007C0FB44C0F820A02046E1688847002874D07A
S315080007D0252806D0D4E901219047206A401C2062CA
S315080007E0F1E700265F462046E16888472028054647
S315080007F007DB312D05D2781910F8200C08B106430D
S31508000800F1E7B00701D526F00406C4F81CA00027B6
S31508000810C4F818A02A2D09D0284606F0D0F938B30E
S3150800082004EB8708303DC8F8185019E059F8041B3E
S31508000830204604EB87029161E1688847012F054647
S3150800084018D1E069002820DA26F020061DE0D8F83D
S31508000850180000EB800005EB40003038C8F8180097
S315080008602046E1688847054606F0A9F90028EED132
S31508000870012F0AD02E2D08D12046E16888477F1C13
S315080008800546022F46F02006C4DBA069002803DAD5
S31508000890404246F00106A061F00701D026F0100696
S315080008A06C2D0BD0682D09D04C2D39D06A2D35D03A
S315080008B0742D35D07A2D33D016E038E0E1682F460E
S315080008C020468847B842054609D16C2F26D04FF4F2
S315080008D08060E168064320468847054604E06C2F99
S315080008E01AD04FF4807006430DB3A5F141001928BC
S315080008F002D8203546F400664A4629462046266030
S315080009004E46FFF78BFB80B101280BD0F61D26F06B
S31508000910070000F1080956E74020E4E78020D8E7F9
S315080009200020D6E706F104094DE7284652E7206A73
S31508000930BDE8F09FA86B000010B5203AC0F00B8008
S31508000940B1E81850203AA0E81850B1E81850A0E8C5
S315080009501850BFF4F5AF5FEA027C24BFB1E818501F
S31508000960A0E8185044BF18C918C0BDE810405FEA8F
S31508000970827C24BF51F8043B40F8043B08BF70470B
S31508000980D20728BF31F8023B48BF11F8012B28BF10
S3150800099020F8023B48BF00F8012B7047431A28BFCE
S315080009A09A427FF6C9AF104410F0030F11441EBFD8
S315080009B011F8013D521E00F8013D10F0030F7FF4B7
S315080009C0F6AF103AC0F00A8010B531E91850103A5F
S315080009D020E91850BFF4F9AFBDE81040530724BF0B
S315080009E031E9081020E9081044BF51F8043D40F8E1
S315080009F0043D12F0030F08BF7047D20728BF31F82D
S31508000A00023D48BF11F8012C28BF20F8023D48BF17
S31508000A1000F8012C704730B5B0F10A024FEA900E83
S31508000A2071F100034EEA817EB0EB0E0061EB910195
S31508000A304FEA101E4EEA017E10EB0E0041EB111133
S31508000A404FEA102E4EEA016E10EB0E0041EB112113
S31508000A504FEA104E4EEA014E10EB0E0041EB1141E3
S31508000A60401841F100014FEAD00040EA41704FEAD0
S31508000A70D10110EB80054FEA810444EA907444EBF7
S31508000A8001046D1944EB0404521BA3414FF0000303
S31508000A9048BF0A3200D530BD401C41F1000130BDC7
S31508000AA02DE9F0470D4699469246044600F124087A
S31508000AB00168880604D5E06921F01001216000E08C
S31508000AC00120A84201DD471B00E00027A1697A1929
S31508000AD002EB0900081AA0612078C00602D4204655
S31508000AE0FFF770FC002608E0D4E901211AF8060091
S31508000AF09047206A401C761C20624E45F4DB20781D
S31508000B00C0060AD52046FFF75DFC06E0D4E90121B8
S31508000B1030209047206A401C2062381EA7F1010742
S31508000B20F4DC07E0D4E9012118F805009047206AAB
S31508000B30401C2062281EA5F10105F3DC2046FFF7BC
S31508000B4057FC2078000602D50220BDE8F087012070
S31508000B50FBE710B5436913B1AFF3008001E0FFF777
S31508000B606AFC012010BD127800F124010A700022E7
S31508000B704A700122EDE711684FF0FF32E9E710B538
S31508000B80436913B1AFF3008001E0FFF7F3FC0120DE
S31508000B9010BD128800F1240182840022C284012239
S31508000BA0EDE711684FF0FF32E9E770B516460C46D7
S31508000BB0054600F01BF8036893F80101012806D0E2
S31508000BC0FF2C0FD8185D68B101202C7070BDD3F8C2
S31508000BD007013246214603F2071303442846BDE8B7
S31508000BE0704018474FF0FF3070BD000010B500F098
S31508000BF005F8001D10BD00BF3160000000487047B1
S31508000C0080180020814208BF704702F0030332F0C3
S31508000C10030205D050F804CB41F804CB121FF9D1D2
S31508000C20002BD8BF704710F8012B5B1E01F8012B6B
S31508000C30002BF8DC704701F0030231F003014FF096
S31508000C40000303D040F8043B091FFBD1002AD8BF94
S31508000C50704700F8013B521E002AFADC704710B5AF
S31508000C6007480849084AFFF7CDFF08480849094ACE
S31508000C70FFF7C8FFBDE8104007480849DBE7000052
S31508000C8000790008D42100200000000078750008CB
S31508000C900000002088030000880300204C1E000086
S31508000CA0FEE7FEE7FEE7FEE7FEE7FEE7FEE7FEE70E
S31508000CB0FEE7FEE7704700002F48016841F470011F
S31508000CC001602E48016821F4027101602C48016810
S31508000CD041F001010160016811F0020FFBD0294BB8
S31508000CE000221A60016821F0A0610160016841F4E0
S31508000CF080310160016811F4003FFBD02249096880
S31508000D0001F0FF0C2149BCF1110F0CBF40F2036C36
S31508000D1040F2037CC1F800C0DFF878C01C49CCF863
S31508000D200010016841F080710160016811F0007FD0
S31508000D30FBD041F20201196017494FF480130B608A
S31508000D40091D0A60091D0A60144A190211608A13EE
S31508000D5013490A60016821F0010101601149012067
S31508000D600860704710B5FFF7A7FFFFF778FFBDE8E3
S31508000D70104001F00DB9000088ED00E014ED00E028
S31508000D800038024008380240002004E0003C0240D7
S31508000D9008304004043802403038024040380240E7
S31508000DA044380240003801407047154B154A196807
S31508000DB01068D3F800C08C45F9D1704730B583B0B8
S31508000DC004460021684603F060FFFFF7EEFF05467C
S31508000DD02046FFF7E9FF032894BF0024C41EFFF747
S31508000DE0E4FF401BA042FAD9684603F055FF03B05A
S31508000DF030BD00EB40004001401F00F027B900005D
S31508000E0024040040240C00408068406870478068CD
S31508000E108068704710B584B033496FF003006844A2
S31508000E20884228BF314A03D340F804298842FBD2B6
S31508000E30304C2F4860603048A06000F0AFFB2F4868
S31508000E402F490844A1680844A06001F0D9FF206032
S31508000E5000F0F7FC01F006FC00F0F8FC0020034661
S31508000E6004220090114627A000F042F92BA32EA2D7
S31508000E70304931A000F03CF9364937A000F038F97E
S31508000E8001A902A800F07EFBDDE90110FFF7E5F9EC
S31508000E9038A005F0B9FE274937A005F0B5FE38A1F8
S31508000EA035A005F0B1FE20A138A005F0ADFE1BA1C6
S31508000EB036A005F0A9FE01214EF6602002F034F9AD
S31508000EC00121022002F018FA0121084602F02AF947
S31508000ED001F090FE30A005F097FE38A005F076FEEA
S31508000EE002F0C1FF04B010BD005E01200DF0ADBADE
S31508000EF0000000083C000020787500000000000093
S31508000F00880300002E4E65744D46207625642E25EE
S31508000F10642E25642E25640D0A00000031343A3308
S31508000F20303A3030000000004A616E202035203209
S31508000F3030323000546C000825732C204275696CD9
S31508000F406420446174653A0D0A0925732025730DDA
S31508000F500A000000B0374D0041524D20436F6D70B6
S31508000F60696C65722076657273696F6E2025640DEB
S31508000F700A0000000C000000252D3135730D0A000B
S31508000F804275696C6420446174653A002020252DF9
S31508000F903133730D0A0000000C6D61696E206578A7
S31508000FA06974656421213F3F3F2E202048616C7497
S31508000FB0696E67204350550D0A0000006D61696E21
S31508000FC02065786974656421213F3F3F2E202048BB
S31508000FD0616C74696E67204350550D0A0000000065
S31508000FE0002070470020704700207047FFF7BAFEC0
S31508000FF0FFF710BFFEE710B501F0FEFCBDE8104094
S3150800100002F031BF04B02DE9FF0F6846EFF3058102
S31508001010FFF7F1BF81B000B52DE9FF5F6846EFF332
S315080010200381C163AFF3008010B582B00446002186
S31508001030684603F02AFE0021204601F0DDFC02F096
S3150800104012FF684603F028FE02B010BD001FFDDC43
S31508001050704710B5024652E8000F00EA010342E85D
S315080010600034002CF7D110BD024652E8000F42E8C2
S315080010700013002BF9D1704710B5024652E8000F4D
S3150800108040EA010342E80034002CF7D110BD000005
S31508001090034951F82020521E41F8202070470000CD
S315080010A0C8060020034951F820000028CCBF0120BB
S315080010B000207047C8060020034951F82020521C1A
S315080010C041F8202070470000C806002010B50146E8
S315080010D00548FFF7D1FF04484168002908BF10BD3D
S315080010E08068BDE8104008479C0000200020704733
S315080010F00FB410B503A9029800F010F810BC5DF8FB
S3150800110014FB01207047002070470FB410B504AADD
S31508001110039900F051FA10BC5DF814FB0346034826
S315080011200A461946406900F047BA00001400002034
S315080011302DE9FF4F89B00546014603F00F0B08AAB3
S3150800114001A804F05BFF002800F09D810198C268A1
S3150800115080688168104688470490019803AE02ACFF
S31508001160C1688068D0F808C00846E047234632467A
S31508001170294605F0DFFC002868D00498DDE90AA7AF
S31508001180816903984FF0010900EB800001EB8000AC
S3150800119001688068691AB1FBF0F200FB121005902D
S315080011A0002803DA0020059000F0EAF9049803996C
S315080011B04069884240F29B81049804238169039818
S315080011C000EB800001EB80040298216900EB4000E7
S315080011D003EB80000A582168A06802FB0012691A0E
S315080011E0B1FBF0F605990792401A06900020059083
S315080011F06068B04217D90698504534BF8046D04635
S31508001200A06806900298226900EB4003082101EBCA
S3150800121083015158B1422BD2401C0290E1688842A2
S315080012201AD300F0ADF9BAF1000F40F36081B9F1B5
S31508001230000F00F05C810020029003980499401C7E
S31508001240039049698842B7D300F051B92946AA489C
S3150800125005F0BCFC00F029B900EB40020420216926
S3150800126000EB8200A2680858216800FB021007906C
S31508001270BBF1000F18BFBBF1010F08D0BBF1020F7D
S315080012804CD0BBF1030F00F0CF8000F0EAB8049809
S31508001290007810F0020F13D0BBF1000F06D04246BB
S315080012A029463846FEF74AFF00F0DBB80B98414658
S315080012B00268284600F0DCFF0B99086000F0D1B8F8
S315080012C0BBF1000F05D1404605F0ABFC070000F066
S315080012D0EC80019829464246D0F80C9080683B4637
S315080012E0D0F80CC04846E0475FEA000903D0BBF1D6
S315080012F0000F07D0B5E0BBF1000F04BF384605F074
S315080013008EFCAEE00B9841460268384600F0B0FF06
S315080013100B990860384605F082FCA2E02946019838
S3150800132002F016F9002804BF0DB0BDE8F08F216958
S31508001330029800EB400051F82010704888430FD0FF
S31508001340A268206806FB02094D4523D10198494643
S31508001350D0F80CC08068036A60469847D0B912E096
S31508001360079885422CD166480068002818BF05F002
S3150800137056FC00206249486040F60C1005F051FC06
S315080013805F4908603AE001984946C3688068426A3E
S3150800139018469047019800210091D0F80C90806873
S315080013A042463B46D0F810C029464846E0475FEA21
S315080013B0000956D14246294652A005F007FC50E0DE
S315080013C04F490A984A68104440F60C12904215D9BB
S315080013D005F027FC0090002804BF0DB0BDE8F08F8B
S315080013E04748426801680098FEF7A8FE4448006826
S315080013F005F015FC42490098086006E04048006878
S31508001400002804BF0DB0BDE8F08F3D480A9A016870
S31508001410406808443946FEF791FE394841680A98FB
S315080014200144374841601CE02946019802F090F8CB
S31508001430002804BF0DB0BDE8F08F2169029800EBC3
S31508001440400051F820102D4888430AD00198A26818
S315080014502168C368806806FB0211426A18469047ED
S315080014608146AAEB080ABAF1000F40DDB9F1000F70
S315080014703DD0002F18BF474445446068761CB042EB
S315080014803FF6B9AED7E60A9829182A48D0E90630B1
S3150800149018449D4228BFA84201D9814209D9009023
S315080014A0294625A00A9A05F091FB0DB00020BDE853
S315080014B0F08FBBF1000F1AD0BBF1010F04BF29460C
S315080014C0DDE90A200AD0BBF1020F04BF2846DDE990
S315080014D00A2103D0BBF1030F03D008E0FEF72EFE66
S315080014E005E00A9919B1FF222846FEF7AEFE0DB0AF
S315080014F00120BDE8F08F0000D47300083040014099
S3150800150058000020204661696C656420577269742A
S3150800151065536563746F72206174206C6F636174C0
S31508001520696F6E2025782C2073697A6520257820C6
S315080015300D0A00001400002020496E76616C69646B
S31508001540206164647265737320257820616E642057
S3150800155072616E67652025782052616D205374612B
S3150800156072742025782C2052616D20656E642025C2
S31508001570780D0A00C1430148FFF76BBD9C000020A7
S3150800158000BEFEE7034A02600348801A001D086091
S31508001590704700000080002004700120704700207A
S315080015A0704702F0DDBF014611F8012B002AFBD176
S315080015B0081A401E7047000070B51346ADF5007D49
S315080015C004460A464FF40071684600F038F90546A5
S315080015D004F47F406E46B0F5A06F11D0B0F5C06F29
S315080015E006D000232A463146204600F0EAFD10E0E0
S315080015F00A48016869B1002070553046884708E0F6
S315080016000024002D05DD305D01F03EFD641CA54279
S31508001610F9DC0DF5007D284670BD00005400002059
S315080016207047704770B5284C254D264E21683028DE
S3150800163007D0402837D0306840F00400306030BF0B
S3150800164070BD002918BF8847286840F00400286044
S31508001650306840F205210843306030BF1B480168F6
S3150800166041F480310160296821F00401296001688C
S3150800167011F4003FFBD0016841F0807101600168F8
S3150800168011F0007FFBD012490A6842F002020A6094
S31508001690016821F0010101606068002808BF70BD7B
S315080016A0BDE870400047002918BF8847286840F001
S315080016B004002860306840F00600306030BF70BD16
S315080016C010ED00E0007000400C00002000380240D9
S315080016D008380240F0B410004FF0000304BFF0BC15
S315080016E070470E4F0E4E4FF0604CCD5C3A6812F0C4
S315080016F0010F1CBF326812F0010F09D0DCF8002078
S3150800170022B900BFDCF80040002CFAD08CF8005053
S315080017105B1C8342E9D3F0BC70470000800E00E0F2
S31508001720000E00E0002070470020704702F03ABF24
S315080017302DE9F04190460D46060001D0042D01DB47
S31508001740FFF71EFF06EB8504206908B1A06A08B1F9
S31508001750FFF716FF2369186800F1010CBCF1080FA2
S3150800176008BF4FF0000C01219A68002A18BF00270D
S315080017700AD02069A9408068C8F800007079FFF788
S3150800178010FF3846BDE8F0815A68624508BF99607F
S3150800179000EB001003EB800000F10C07C3F800C053
S315080017A0E7E770B516460C46050001D0042C01DBA8
S315080017B0FFF7E6FE05EB8404206900281ABFA06A35
S315080017C00028FFF7DDFEAEB100202169D1E900232C
S315080017D09A4202BF8A68002A70BD03F10102082AEC
S315080017E008BF0022C1E9012003EB031001EB8000CA
S315080017F00C3070BD2069D0E900218A4207BF826893
S31508001800002A01EB011100EB810008BF0020EFD18F
S3150800181070BD002819BF002A00290120704710B59D
S3150800182094465C1C0022A1423EBF0270012010BDF6
S31508001830C2541A466146FEF759FD002010BDFEF750
S3150800184037BC10B500F026FE012010BD00B583B0E8
S3150800185004F05CFC04F0D4F800200190009069467E
S3150800186001A800F085FCDDE9001001F0DDFA00F0C2
S3150800187087F900F02DFB00F0B1FD00F093FB002086
S3150800188003F0CEF904F024FB01F050FC04F04EFB03
S31508001890FFF7C7FE04F098FEFFF7C2FE04F095FEB8
S315080018A000F053F801F08CFF00F015F800F078FB13
S315080018B001F016F800F010FA00F068FB00F056FC8C
S315080018C000F05EFF00F0CDFC00F03CF803B05DF8D8
S315080018D004EB01F0DABB00207047000000B500F405
S315080018E07F4183B0C0B2B1F5807F10D0B1F5007FDB
S315080018F019D0B1F5407F1CD0B1F5006F1CBF03B0FD
S3150800190000BD401E03B05DF804EB01F0ABBB00223E
S315080019100121CDE900120A490823401E096900F091
S3150800192035FA03B000BD03B0401E5DF804EB00F0C5
S315080019304EB803B0401E5DF804EB00F097BC0000FB
S31508001940140000204FF04A4070470120704702F00B
S31508001950C1BA30B4C0680024002804BF30BC704740
S31508001960438803EB000C0378022B0BD003DC33B15E
S31508001970012B07D003E0032B09D0FF2B0FD030BC77
S31508001980002070478B4204BF30BC704719E08B4279
S3150800199017D143789578AB4213D130BC7047037999
S315080019A01578AB420DD143795578AB4209D1C38836
S315080019B05588AB4205D103899588AB4204BF30BC34
S315080019C07047002C08BF6046CAD030BC704702F08A
S315080019D0A1BA02F03DBB10B40A22A0FB023401FBF7
S315080019E002414FF0000C00FB0C1110BC1846704762
S315080019F000B583B04FF0000CCDF800C0CDF804C098
S31508001A0000F002F803B000BD2DE9F05F0546ADF51C
S31508001A10825D0DF580500026D0E91AA8D018144624
S31508001A2005EB010B03903046202206A90A54401CF8
S31508001A30B0F5805FFADB5D456FD27DD2B8F1000F55
S31508001A4005D028466D1C04AA0121C04703E015F8F5
S31508001A50010B8DF810000020019084E00198012107
S31508001A6001FA00F09DF8101008420AD15D4563D2CC
S31508001A70B8F1000F10D06F1C6A4601212846C047EE
S31508001A800FE0AB4558D9B8F1000F48D028466D1C71
S31508001A9002AA0121C04746E015F8010B8DF800009F
S31508001AA02F465F4548D2B8F1000F05D07D1C05AA20
S31508001AB001213846C04703E038788DF814007D1CAC
S31508001AC09DF8140000F00F01CF1C9DF800104FEA96
S31508001AD0101001EB0020C0F30B0000F110093DD0F7
S31508001AE0C9F30B0006A9C6F30B02085C8DF80000C3
S31508001AF0885403998C421FD2BAF1000F08BF04F824
S31508001B00010B04D02046641C6A460121D047761C86
S31508001B107F1E09F10109E3D120E02BE00CE015F85E
S31508001B20010B8DF80800C6F30B0206A99DF80800FC
S31508001B30885403998C4205D30DF5825D4FF0FF302A
S31508001B40BDE8F09FBAF1000F08BF04F8010B04D0F6
S31508001B502046641C02AA0121D047761C0198401C25
S31508001B600190082803DA03988442FFF477AF5D45AD
S31508001B70FFF463AF0DF5825D4FF00100BDE8F09FFD
S31508001B80014802F083B900004818002010B501206A
S31508001B90FFF792FA0220FFF78FFA0B494FF6FD700E
S31508001BA00880FFF702F9094AD2E90032C01A71EB38
S31508001BB0020028BF03F0F8FE0220FFF769FABDE825
S31508001BC010400120FFF764BA100C004060000020A6
S31508001BD0F0B583B00C46054617460021684603F063
S31508001BE054F80026002C18BF00240FD005EB8400FB
S31508001BF0016941B1806A30B90E604E608E60214637
S31508001C00284600F025F8641C042CEFDB002F18BFCB
S31508001C1000210ED005EB81031A69002A1CBF986AB9
S31508001C20002802D016605660966001F10101042969
S31508001C30F0DB684603F030F803B0F0BD02F078BA7E
S31508001C40002814BF00200148704700002407002020
S31508001C5070B582B00C46050005D005EB8400016915
S31508001C6009B1806A10B102B0002070BD1149652023
S31508001C704FF0A04608600021684603F006F806EB18
S31508001C804412D2F8000B10F0004F0CD1281990F826
S31508001C90240040F40020C2F8100BD2F8000B40F0E4
S31508001CA00440C2F8000B684602F0F6FF02B00120B5
S31508001CB070BD000068000020012805DA044B53F8BF
S31508001CC020000368DB680BB100207047406818479E
S31508001CD0A4710008012070477047000070B50546DA
S31508001CE00120FFF7E9F90220FFF7E6F9244905EB99
S31508001CF0450001EB0014204603F0C2FE012000FA5D
S31508001D0005F3204D2B6094F8200000F0EBFD064605
S31508001D1028681842F6D1636A4BB394F8220068B172
S31508001D20E56A002D04BF18480568FFF73EF8421912
S31508001D3041F10003204603F0F3FD18E094F8231060
S31508001D4094F82000A26A984794F8210003280ED137
S31508001D5094F82300B04204BF80F0010084F8230001
S31508001D6005D0636A94F820003146A26A9847022093
S31508001D70FFF78EF9BDE870400120FFF789B900002A
S31508001D8088030020143C0140000000200120704711
S31508001D9070B5044690F84750B0F86400854228BFED
S31508001DA005462A46216E206CFEF7C8F984F8445089
S31508001DB0206E002128442066B4F86400401BA4F86D
S31508001DC0640094F84700A84218BFA4F866100BD11F
S31508001DD0B4F86600401B0004000CA4F866001EBF99
S31508001DE0AFF25300E06570BDE16570BD30B51546CC
S31508001DF00C4600220221FFF7ACFD002808BF30BDC3
S31508001E0000F10D0241880144206878B1904288BFEC
S31508001E1081422ED92B68934228BF994229D9427804
S31508001E20052A04BF0278072A23D10FE04FF00000E5
S31508001E3022602860206888421BD24378042B0ED083
S31508001E40052B04BF0078072815D00CE05A78042A19
S31508001E5001BF1A78092AC01D20600AD1EBE702786B
S31508001E60092A08BF28602068027810442060884242
S31508001E70E3D3002030BD012030BD02F095B970478C
S31508001E8000F47F4310B54FF0000CC0B2B3F5807F65
S31508001E9009D0B3F5007F0AD0B3F5407F0CD0B3F56F
S31508001EA0006F0FD00CE0401EFFF720F902E0401E3D
S31508001EB001F0DAFF844603E0401EFFF770FB844614
S31508001EC0604610BDBDE81040401EFFF7F5BE000095
S31508001ED0044810B50021016041600348FFF7C4F8C3
S31508001EE0012010BDA80E00209C00002001490968A9
S31508001EF0084070479C0000200128A4BF00207047B6
S31508001F00054951F8200001680969002904BF012024
S31508001F107047406808470000A4710008012807DADE
S31508001F20044B53F8200003689B680BB140681847B8
S31508001F3000207047A471000810B50446007994F88B
S31508001F404610884208BF10BD052804D10122114653
S31508001F502046FFF73DFE94F846002071072811D267
S31508001F60DFE800F004080808080908000020A4F8BB
S31508001F706400E06510BD20460022BDE8104001213E
S31508001F80FFF726BEBDE81040FFF7FABA01207047F2
S31508001F900248016841F00F0101607047303802407D
S31508001FA0012070470120704700281CBF0120704798
S31508001FB02DE9F04F8346674885B0016841F08001F6
S31508001FC00160654C4FF0A0450021684602F05DFEB1
S31508001FD00220C5F804088020A8606048E8604FF42D
S31508001FE01020A863D5F8000840F00300C5F80008DB
S31508001FF0A86B40F40010A8634FF0010904F1A8008B
S31508002000C4F8B4906065042084F858000022494654
S315080020102046FFF79EFC002814BFC07A082084F8E3
S31508002020470094F8581001204FF000080129C8BF4E
S3150800203040210BDD04EB8002C2F828802218401CE0
S3150800204082F8241094F858208242F3DC002637469A
S31508002050CDF8088003AA02A92046CDF80C80FFF720
S31508002060C5FE002818BFDFF8F8A06CD0029894F8CF
S315080020705820807800F07F018A4264DD039A9278BE
S31508002080032A60D810F0800F1CBF04EB8100C0F84B
S31508002090289002988088082818BF102803D020287E
S315080020A018BF40284FD104EB010282F824004FF0F4
S315080020B08B0007FB00F00AEB800004EB8102C0F8F6
S315080020C00080C0F80480C0F808801061029807F103
S315080020D00107C07800F0030001282DD04900884088
S315080020E0064303AA02A92046FFF780FE0028BDD1B1
S315080020F04EB3A4F8B0604FF47A70FEF75FFE002185
S31508002100584600F0F9F900221649432001F00AFA68
S31508002110002214492A2001F005FA4FF0FF306861C1
S315080021204FF48050A861C5F83488A86840F00100CB
S31508002130A8600D492A200860684602F0ADFD05B082
S315080021400020BDE8F08F684602F0A6FD05B0012024
S31508002150BDE8F08F3438024024070020400C0040C8
S31508002160DC0700205D3C000868000020012070475D
S31508002170034A02600348801A001D08607047000081
S31508002180007E0120F87F012000F47F41C0B2B1F53E
S31508002190807F0DD0B1F5007F0DD0B1F5407F0DD011
S315080021A0B1F5006F1CBF00207047401EFFF7A4BEA4
S315080021B0401EFEF7A6BF401E01F063BE401EFFF795
S315080021C0B1BA2DE9F0479A461746884600F47F4586
S315080021D04FF000095C1CC6B23CE0B5F5807F09D01B
S315080021E0B5F5007F0CD0B5F5407F0FD0B5F5006F7B
S315080021F024D013E0701E3A464146FEF784FF0AE0F3
S31508002200701E3A46414601F03EFE04E0701E3A460C
S315080022104146FFF789FA002820DB16D14FF0000067
S31508002220A4F1010402F02BFD002818BF002C15DDCF
S3150800223000210122202000F095FB0BE0701E3A4693
S315080022404146BDE8F047FFF769BE0AF101043F1AA7
S3150800225080448144002F18BF002CBEDC4846BDE8E8
S31508002260F0874FF04A4070470120704701207047B9
S315080022704B1E0029C8BF08490CDD10F801CB8CEAB3
S31508002280126C51F82CC08CEA0222B3F1000CA3F1AF
S315080022900103F2DC10467047106D0008002808BFDD
S315080022A0704770B550F8041C1B4DA0F11404A942E0
S315080022B005D01AA0A268FEF71BFFFEF7ABFEA268C0
S315080022C0201F1158A94204D024A0FEF711FFFEF7DB
S315080022D0A1FE3249E160206858B1C2688A4208D135
S315080022E0A26883681A44A26000682060002818BFA4
S315080022F044606068002808BF70BDC2688A4218BF7B
S3150800230070BD8168A2681144816021680160002956
S3150800231018BF486070BD00000DF0B1BA53696D7002
S315080023206C65486561705F52656C656173653A20D6
S315080023304D656D6F727920626C6F636B206865619D
S315080023406420636F7272757074696F6E3A202530F7
S31508002350387820253038780D0A00000053696D70EA
S315080023606C65486561705F52656C656173653A2096
S315080023704D656D6F727920626C6F636B207461694D
S315080023806C20636F7272757074696F6E3A202530AF
S31508002390387820253038780D0A000000EFBEADDE0B
S315080023A001207047402828BF704738B58C4611462B
S315080023B003F00F020446012A08BF032102D0002AAF
S315080023C018BF0221624600F031FF0020034602468C
S315080023D001460090204601F0FDF838BD2DE9F04190
S315080023E01420002100F090FA00201F49054621F824
S315080023F01050401C0428FADB00241C4E012704EB6D
S31508002400440006EB00101A490022876103F088FE93
S31508002410641C102CF3DB17480560002216490620B9
S3150800242001F080F800221549072001F07BF8002208
S315080024301349082001F076F800221249092001F014
S3150800244071F8002210490A2001F06CF800220F49A1
S31508002450172001F067F800220D49282001F062F8DC
S315080024600120BDE8F0810000040000208803002058
S315080024700F380008003C0140DD310008E331000850
S31508002480E9310008EF310008F5310008FD31000890
S31508002490253300084FF0E0214FF0FF30C1F88001E6
S315080024A0C1F88401C1F88801C1F88002C1F8840224
S315080024B0C1F888020C480B498160C160016141611D
S315080024C08161C16201638163C163BFF35F8F084A9B
S315080024D006491160111F08600648016841F4E021A9
S315080024E00160704705100008000200200007FA0581
S315080024F00CED00E024ED00E02DE9F041334C82B00C
S315080025008846B4F8B000002804BF02B0BDE8F081E0
S315080025104FF0A0450021684602F0B7FB00262C487C
S315080025200127D4F8B410B8F1000F2BD0002946D1F2
S315080025302B210160C4F8B470D5F8040840F00200F5
S31508002540C5F8040894F858000125012814DD04EBA1
S315080025508500016900291CBF806A002807D04FF052
S31508002560010229462046FFF71CF90028F7D194F8FE
S3150800257058006D1CA842EADC84F846602046FFF73E
S31508002580DBFC1CE0D9B12D210160C4F8B460A22699
S315080025900022334611460B20FFF704FF002233467C
S315080025A011460C20FFF7FEFED5F8040820F00200BD
S315080025B0C5F8040884F846702046FFF7BDFC68464F
S315080025C002F06AFB02B00120BDE8F0812407002072
S315080025D06800002070B582B00D4604001CBF94F850
S315080025E05800A842DEBF002002B070BD4FF0A046DA
S315080025F01B49742008600021684602F046FB04EB7C
S315080026008500016900291CBF806A002813D0606D07
S3150800261010F8150010F0010F13D04FF001022946EB
S315080026202046FFF7BEF80028F7D1684602F034FBCB
S3150800263002B0012070BD684602F02EFB02B00020F1
S3150800264070BD684602F0E8FA18B12146304601F036
S3150800265095F92A462146304601F0FCF8E5E70000E0
S3150800266068000020274830B44FF0FF310A0CC0E953
S3150800267000122548016841F00A0101602348816873
S3150800268041F008018160DFF888C00422ACF8002018
S315080026900CF10401202008800020091D08801D4B2C
S315080026A0022119801C490880091D08801B4B5F21DF
S315080026B019801B490860411E1B1D19601949012311
S315080026C00B8019490A800A1D1080184C272222807F
S315080026D0221D1080164A1080121D4FF6FF701060DA
S315080026E014480380088840F001000880BCF8000000
S315080026F040F00100ACF80000002230BC0E49322040
S3150800270000F010BF6000002040380240002004E0BE
S31508002710000C00400C0C0040180C0040280C00402F
S31508002720340C0040140C004000040040080400402B
S3150800273028040040140400408D1B000830B583B0FF
S3150800274004460D460021684602F09FFA0948C0E98A
S31508002750004509480460FEF728FB001B71EB0500DD
S3150800276002D3064902200880684602F095FA03B0AB
S3150800277030BD000060000020340C0040140C0040FE
S315080027804FF07740704700001A4910B51B300A68A9
S3150800279020F00301002A18BF174825D0D3688342C2
S315080027A01FD193688B421CD301F1280083420DD9AF
S315080027B010461A18521A0368C2E900300260002B44
S315080027C018BF5A60916083685B1A836062B10B48D0
S315080027D0D0600B4810619168131FC85002F11400AD
S315080027E010BD1268002AD9D106A0FEF781FC002088
S315080027F010BD000098000020EFBEADDE5EBEADDE67
S315080028000DF0B1BA202020204D656D6F72793A20FF
S315080028104F55544F464D454D4F5259212120256459
S315080028200D0A000090F84410002904BF02207047E2
S31508002830016C4A780A2A13D2DFE802F00507120962
S31508002840120B12120D0F00F00DB800F021BC00F0AB
S315080028506BB900F043B900F06FBF012200F088BFE2
S3150800286001F068BA81B00022ADF800204A88002A33
S3150800287004BFCA88022A24D190F84630032B20D0F8
S315080028800A7812F00F0208BF00F150011CD0012A85
S3150800289002D0022A05D014E0052B08BF694610D1DC
S315080028A012E0042B01D18A885AB90A7902F07F020C
S315080028B08A8090F858108A423CBF416D01EB42016C
S315080028C002D3012001B0704701660221A0F8641006
S315080028D00249C165002001B070470000911D00083B
S315080028E001207047402824BF002070470109054A87
S315080028F002EB8121096900F00F0021FA00F000F0CF
S3150800290001007047000002400022134610B5121A53
S3150800291073EB01020BDA42F21072821A71F10001AE
S3150800292005DA00F00FFC03490860012010BD0020FD
S3150800293010BD00000000002010B504462A2000F053
S3150800294059FF432000F056FF01212046FFF7D4FD2A
S315080029500348016821F080010160002010BD0000D5
S31508002960343802402DE9F043814685B00F461046BB
S3150800297000F0E8FB04460D46002102A802F085F99E
S31508002980FEF713FA04194D4101264FF000083846A0
S31508002990FFF7ACFA38B1044602A802F07DF905B093
S315080029A02046BDE8F083FEF700FA001B71EB050030
S315080029B006D302A802F070F905B00020BDE8F0833E
S315080029C01EB10220FEF76EFB58B1CDE9007801264C
S315080029D04A462046294603F01DF802A802F026F9C1
S315080029E0D5E702A802F03AF903F0A0FB064602A8CA
S315080029F002F028F9CBE7000030B583B0054600227F
S31508002A000120CDE900020C4608234FF4E1311046B7
S31508002A10FFF7BCF924B1214611A000F0D1F802E075
S31508002A2014A000F0CDF816A0E96B00F0C9F818A0BC
S31508002A30A96B00F0C5F81AA0696B00F0C1F805F19A
S31508002A4040011BA000F0BCF80024214655F82420BC
S31508002A501BA000F0B5F8641C0C2CF6DD03B030BDE5
S31508002A60455843455054494F4E20307825303278E2
S31508002A703A0D0A004552524F523A0D0A000000001C
S31508002A802020637073723D3078253038780D0A003F
S31508002A902020706320203D3078253038780D0A00D4
S31508002AA020206C7220203D3078253038780D0A00B9
S31508002AB02020737020203D3078253038780D0A00A4
S31508002AC020207225303264203D3078253038780D44
S31508002AD00A000000FEF77FBF0120704710B50446C4
S31508002AE048887F289CBF8A88002A04BFC98800298D
S31508002AF003D194F84610052901D3012010BD10F022
S31508002B00FF0084F845000CBF0320042084F8460023
S31508002B102046FFF711FA0020A4F864000148E06592
S31508002B20032010BD911D000810B50446C88888BB4F
S31508002B3094F84620032A2DD0087810F00F0005D007
S31508002B40012808BF10BD022815D023E048880128AF
S31508002B5020D10A4602212046FEF7FBFED0B1C07AF4
S31508002B6010F0200F05D0B4F8500040F00200A4F889
S31508002B70500006201BE0042A01D1888850B908793C
S31508002B8010F07F0088801CBF94F85820824201D933
S31508002B904A880AB1012010BD626D32F8103043F040
S31508002BA0010322F81030087984F85900042000211E
S31508002BB0A4F864100149E16510BD0000911D0008E4
S31508002BC00FB4FF2110B5C0B043AB6846429AFEF772
S31508002BD036FE04460020FEF794FA2246694600208F
S31508002BE0FEF791FA0020FEF78CFA40B010BC5DF8AB
S31508002BF014FB00002DE9F04188B044F620600290ED
S31508002C0003A906A8FEF7BEFC0399069800F00CF97E
S31508002C10554C5648616802F045F802A9544803F035
S31508002C207FFE002818BF012020B902A800F058FB33
S31508002C3000286FD001F024F90025042300951A46D0
S31508002C404CA140F201500195FEF75FFA50A00090A2
S31508002C5052A3554A55A140F20150FEF756FA60684C
S31508002C6000F076FA00221146104600F073FBE06881
S31508002C70FFF78AFA0422002311463EA00095FEF7C4
S31508002C8037FA43A345A248494FA0FEF731FA5449FB
S31508002C9054A0FEF72DFAE068FFF776FA01200490B3
S31508002CA004A8DFF8C880009008230122002108F54F
S31508002CB0016002F01BFEFEF778F806460F468521EE
S31508002CC02020029AFFF74EFE040018BFFEF752FCBA
S31508002CD014F0800F04D0002202A9012000F03AFB6C
S31508002CE014F0050F1CBF214802F0DCF9D8F80408D7
S31508002CF010F0020F1CD020F00200C8F804080022C9
S31508002D0002A9022000F026FBFEF74FF806460F46FA
S31508002D10D5E7FFE7154802F06FFB002804BF4FF020
S31508002D20FF30029086D001F0A1F808B0BDE8F08126
S31508002D300298B0F1FF3FC2D000F004FA04460D46EF
S31508002D40FEF733F802460846911B60EB0700611A46
S31508002D5075EB0000B3D200221146072000F0FAFAFC
S31508002D60024802F049FBAAE714000020C80E00201A
S31508002D70AC18002054696E79426F6F7465722076BC
S31508002D8025642E25642E25642E25640D0A00000070
S31508002D9031343A32393A3530000000004A616E2043
S31508002DA02035203230323000546C0008257320421A
S31508002DB075696C6420446174653A0D0A09257320A7
S31508002DC025730D0A000000002573204275696C649E
S31508002DD020446174653A2025732025730D0A000086
S31508002DE0B0374D0041524D20436F6D70696C657266
S31508002DF02076657273696F6E2025640D0A000000DF
S31508002E0070B50022064D074C20211046FFF730FA10
S31508002E10024621462846BDE87040FFF729BA000059
S31508002E20D421002000000000074A10608160116864
S31508002E30002008601168486011680448C860116875
S31508002E40034808617047000098000020EFBEADDE19
S31508002E500DF0B1BA2DE9F00F00278BB001463E46BA
S31508002E6038463A463B46E84608F80230521C1F2ABE
S31508002E70FADB0022FF230DF1200B0BF80230521C5F
S31508002E800A2AFADB00280FBF4FF001090BB0BDE88C
S31508002E90F00F70474B880A7803EB010A022A39D0EB
S31508002EA003DC82B1012A16D005E0032A00F0C880A7
S31508002EB0FF2A00F0D180172051460028EAD00BB02F
S31508002EC0BDE8F00F704737420FBF01200BB0BDE8D1
S31508002ED0F00F7047F0E7002F18BF0220ECD1162B31
S31508002EE006BF0A79122A0320E6D14A79012A18BFB1
S31508002EF00420E1D1CA7A082A18BF102A04D0202A49
S31508002F001CBF402A0520D7D1497D012914BF0620B8
S31508002F100127D1E7002E18BF0720CDD10A79092A43
S31508002F2070D1CA88121D93426CD14A79022A18BFF9
S31508002F300920C1D10A7A002A08BF0A20BCD04B7AD8
S31508002F40012B88BF0B20B7D8CB7A03F08F03802BD1
S31508002F5018BF0C20B0D1521ED5B20D314A78042ABA
S31508002F6001D00E20A8E70A78092A01D00D20A3E788
S31508002F70CA780AB10F209FE70B79002B18BF0022E9
S31508002F8010D01BF802C0BCF1FF0F07D00A2A07DAD7
S31508002F908C78A44518BF521CF3D11A200A2A03DBE1
S31508002FA01B2089E7102087E711F802CF0BF802C02B
S31508002FB00A7AC91D052A05D091F800C061444A78E5
S31508002FC0052AF9D15A1ED2B205D22CE04B78052B28
S31508002FD001D0122070E70B78072B01D011206BE780
S31508002FE08B7803F07F0CACF101031F2B01D318205B
S31508002FF062E7CB7813F0030F02D013F0C00F02D0AC
S31508003000132059E71AE00CEB080313F801CCBCF1BE
S31508003010000F01D019204FE7521E03F8019CD2B2C7
S3150800302001F10701D2D200287FF446AF6B1EDDB24C
S3150800303094D2514508BF01263FF43EAF08203BE72E
S315080030400A79121D934218BF14207FF435AF4979C7
S31508003050032918BF15202FE7097911F0800F08BF3B
S31508003060162029E70128A4BF00207047054951F812
S31508003070200001680968002904BF012070474068DC
S3150800308008470000A471000870474FF04A4070478F
S3150800309010B50446C888002804BF94F846000528D9
S315080030A02BD1087810F00F0005D0012808BF10BDF5
S315080030B0022817D021E0488801281ED10A46022195
S315080030C02046FEF746FC00281CBFC07A10F0200FE9
S315080030D013D0B4F8500020F00200A4F850004FF0C6
S315080030E0060017E0087910F07F0088801CBF94F866
S315080030F05820904201D24A880AB1012010BD626D5B
S3150800310032F8103023F0010322F81030087984F8D9
S31508003110590004200021A4F864100149E16510BD96
S31508003120911D000800207047002070470023024ABE
S315080031300249034802F0B0BFE0000020AC000020BE
S31508003140701800204FF47A71A0FB01017047000047
S3150800315030B500F47F4183B0C4B2B1F5807F09D0A1
S31508003160B1F5007F13D0B1F5407F29D0B1F5006FD6
S315080031702CD013E000210120CDE9000116480823D0
S3150800318000220169601EFEF701FE03B030BDC0F3E0
S31508003190421000210546FEF7C9FA10B103B0002017
S315080031A030BD2846FEF713FC002804BF03B030BD27
S315080031B0601E03B00222BDE830400121FEF709BCBB
S315080031C003B0601EBDE83040FFF750B803B0601E7C
S315080031D0BDE83040FFF746BF140000200020FEF788
S315080031E07DBD0120FEF77ABD0220FEF777BD0320DC
S315080031F0FEF774BD0420FEF771BD000070B50948DE
S315080032000068094909680525084000F478704409EA
S3150800321014F0010F1CBF2846FEF760FD6D1C6408FC
S31508003220F6D170BD143C0140003C01402DE9FF4F2A
S315080032301F46DFF8A8C003090CEB832400F00F0C27
S31508003240012000FA0CF84FEA4C00032303FA00F5B4
S31508003250002683B0022A08BF012602D0012A08BF29
S31508003260022606FA00F281400491390A01FA00F9A9
S315080032704FEA4C70C00E0F2101FA00F6C7F303118E
S3150800328001FA00FB02924FEADC0A0021684601F0C7
S31508003290FCFC20680499A84308432060E068029A69
S315080032A0A8431043E060A068A84340EA0900A0606C
S315080032B004EB8A00016AB14341EA0B0101626068C6
S315080032C017F0010F14BF40EA080020EA0800606002
S315080032D0684601F0E1FC07B0BDE8F08F0000024047
S315080032E070B5054600241220FFF7FCFA10B1601EDF
S315080032F001242860204670BD0020704770470000F2
S315080033000128A4BF00207047054951F8200001682C
S315080033104968002904BF0120704740680847000033
S31508003320A471000870B509480068094909680A25A2
S31508003330084000F47C40840A14F0010F1CBF28469C
S31508003340FEF7CCFC6D1C6408F6D170BD143C014038
S31508003350003C014070B515460C46092828BF70BDCB
S31508003360DFE800F005170C1820283217480028A1B6
S31508003370BDE8704040F20150FDF7C7BE002C1ABFE9
S315080033802068B0F1FF3F70BD44F620618842B8BF9F
S31508003390216070BD2246BDE8704020A140F2015070
S315080033A0FDF7B3BE2246BDE870401FA140F20150AA
S315080033B0FDF7ABBE1FA140F20150FDF7A6FEBDE822
S315080033C070401CA0FDF794BE34B11EA140F2015016
S315080033D0FDF79BFE1BA005E01FA140F20150FDF77B
S315080033E094FE1DA0FDF784FE2048C068BDE8704025
S315080033F0FEF7CABE002C08BF70BD22461CA140F2CB
S315080034000150FDF782FE44F00100286070BD0000FF
S3150800341057616974696E670D0000000057723A209B
S315080034203078253038780D0045723A2030782530C6
S3150800343038780D0043686B207369676E617475721E
S3150800344065200D005369676E617475726520504179
S3150800345053530D0A0D0A00005369676E617475723D
S3150800346065204641494C0D0A0D0A0000140000204B
S315080034705374617274696E67206170706C696361F8
S3150800348074696F6E206174203078253038780D0A9B
S315080034900000000010B500F47F420446C1B2B2F540
S315080034A0807F0FD0B2F5007F11D0B2F5407F17D0DC
S315080034B0B2F5006F1CBF002010BD481EBDE81040C5
S315080034C0FFF71EBFBDE81040481EFEF769BF481E3D
S315080034D0FEF7B4FBC4F34210BDE81040FEF7CDBCBE
S315080034E0BDE81040481EFFF7F7BA000010B50446BD
S315080034F084B008A0FEF757F8002206A1CDE90021FE
S315080035001346029004221146204602F0A5F904B09B
S31508003510012010BD427261696E50616432202D200F
S3150800352047484900094A02EB80021164BFF35F8FDE
S3150800353000F01F02012191404009800000F1E020BF
S31508003540C0F88012C0F80011012070470002002060
S315080035502DE9F04104460E46D4E9021082B0D1F8AE
S3150800356008C00025E84601AFE0473B4642463146DB
S3150800357003F0E0FAB0B1D4E9021089688847816996
S315080035800098102200EB800002EB80000958019891
S3150800359000EB400011F8200010280ABF03A00125FF
S315080035A0FDF7A6FD284602B0BDE8F0815472796998
S315080035B06E6720746F20777269746520746F206255
S315080035C06F6F74737472617020726567696F6E0DC0
S315080035D00A0000002DE9FF4F8A46074600F00F0053
S315080035E0012101FA00F48107090F0F2202FA01F9F5
S315080035F03A0902FA01F84B4900EB400083B001EBA7
S3150800360000151E4600216846DDF840B001F03DFB76
S31508003610032000EA9700800000F1804000F598300A
S31508003620BAF1000F67D0D0F8081801EA0901414538
S3150800363012D03D490968214206D0684601F02CFBA4
S3150800364007B00020BDE8F08FD0F8081821EA090174
S3150800365041EA0801C0F8081885F8207085F8216045
S3150800366085F822B00598C5E909A0284602F008FAA7
S315080036702E49ED600868A0430860081D0268A24349
S315080036800260062E22D2DFE806F02103080F08039F
S31508003690016821430160002003E0086820430860B0
S315080036A0012085F8230011E00268224302600868B9
S315080036B0204308601E4B1C603846FFF713F919684B
S315080036C02142F8D180F0010085F8230016480168E8
S315080036D021430160042E02D0052E05D01AE0384693
S315080036E0FFF700F920B915E03846FFF7FBF888B967
S315080036F0104804600EE0D0F8080800EA09004045C2
S3150800370008D109480168A14301600020686228467B
S3150800371002F0B6F9684601F0BFFA07B00120BDE825
S31508003720F08F000088030020003C0140083C01405F
S31508003730143C0140103C01404A88002A01BF8A888F
S31508003740002AC98801290FD190F8461003290BD001
S3150800375000F1480101660121A0F86410A0F866107E
S315080037600249C1650020704701207047911D000875
S3150800377070B5044688881546002804BFC8880028FE
S3150800378006D194F84600032802D04888012801D9B2
S31508003790012070BD10F0FF0084F8480014BF052012
S315080037A0042084F846002046FEF7C6FB25B1002013
S315080037B0A4F864000148E065052070BD911D000865
S315080037C010B5054CE068FEF789F86069FEF786F8DB
S315080037D0BDE81040FEF748BD140000200123036031
S315080037E000200B60C2E900007047000000487047DF
S315080037F00CE0002000F01F01012202FA01F1400945
S31508003800800000F1E020C0F880111046704710B51E
S315080038100446406A002808BF10BD94F82000FFF748
S3150800382061F894F82320824218BF10BD94F820C08E
S315080038300146636A6046A26A984794F821000328FD
S3150800384018BF10BD94F8230080F0010084F8230007
S3150800385010BD00002DE9F041154600EB451407465A
S31508003860D4F808090E46DFF8B08010F0010F05D02D
S315080038703320C8F800000120C4F80809D4F8000964
S3150800388010F0004F18BFBDE8F08175B306EB850050
S31508003890016900291CBF806A002835D04FF0010253
S315080038A029463046FDF77DFF70B3011D0068732277
S315080038B0C8F8002041B340F40022C4F81029D4F80F
S315080038C0002942F00442C4F8002907EB053202F544
S315080038D080520028D8BFBDE8F08151F8043B136038
S315080038E0001F0028F9DCBDE8F081FFE7F16D59B14A
S315080038F03046884796F84400316C00280CBF6E2283
S315080039007822C8F80020D5E7D4F8000940F000600E
S31508003910C4F80009BDE8F08168000020F8B51C4627
S31508003920154F15000B4606461AD0722038606A46AF
S3150800393029461846FDF7FCFE002804BF3F213960DA
S31508003940011D046006EB053000F58050002CD8BF39
S31508003950F8BD0268241F41F8042B002CF9DCF8BDD9
S31508003960002C14BF6320302003F168013860196405
S3150800397083F84440E6E70000680000202DE9F0419E
S31508003980064688460120FDF797FB0220FDF794FBC3
S31508003990746914F0100F14D0306A00F00F02C0F3E7
S315080039A00A1300F4F010B0F5802F18BFB0F5402FB9
S315080039B003D141463046FFF7B1FF746914F0100F82
S315080039C0EAD114F4802F11D0D6F818084FF0000762
S315080039D005042D0C0AD015F0010F04D03A464146CD
S315080039E03046FFF737FF7F1C6D08F4D114F4002F1B
S315080039F010D0D6F818084FF00007050C0AD015F0B5
S31508003A00010F04D03A464146304600F029F87F1C9B
S31508003A106D08F4D114F4805F04D04146304600F0B6
S31508003A206DF813E014F4006F06D04146304600F0F6
S31508003A306FF94FF40060706114F0004F06D04146EC
S31508003A40304600F0F9F84FF0004070610220FDF7AB
S31508003A501FFBBDE8F0410120FDF71ABB00207047A7
S31508003A6030B400EB4213D3F808CB234C1CF0010FFB
S31508003A7004D0312525600125C3F8085B1CF0080F22
S31508003A8007D04FF0320CC4F800C04FF0080CC3F84A
S31508003A9008CB72B101EB820000698068E0B1D3F807
S31508003AA0000B40F00060C3F8000B7620206030BCA5
S31508003AB070472422226091F8472042F4002242F0FF
S31508003AC0C042C0F8102BD0F8002B42F00442C0F8D0
S31508003AD0002B30BC00F0CAB8881890F8240040F4CF
S31508003AE00020C3F8100BD3F8000B40F00440C3F8CD
S31508003AF0000B4520DAE70000680000202DE9F047B2
S31508003B004A4A0C46212111604FF0FF31416140219C
S31508003B1041624FF04011816294F8582080230021B9
S31508003B20002AC4BF4FF0FF0C4FF0804515DD00EBAF
S31508003B30810643F48002C6F8002100EB4112C2F860
S31508003B4008C9C2F808CBC2F80059C2F8005B94F855
S31508003B505820491C40338A42E9DC4FF486610161EA
S31508003B604FF40041C0F80019C0F8001B0026C0F841
S31508003B7010694FF0C041C0F8101BB4F8B0104FF0F0
S31508003B80011389084FF001024FF0020C18BFDFF845
S31508003B90A0802CD011F0030523D0A71804EB8209C6
S31508003BA097F8247048EA8545D9F828903D43B9F135
S31508003BB0000F0AD045F0006500EB421745EA82552A
S31508003BC0C7F8005943EA0C030BE047F4002900EB59
S31508003BD04217C7F8109B45F00445C7F8005B43EA4F
S31508003BE00C4389084FEA4C0C02F10102D2D1012597
S31508003BF0C0F810580921C0F81418C0F81C380D4927
S31508003C008161D0F8001821F4FE61C0F80018A91ED9
S31508003C100020FDF79CFE0320E56484F8460084F83E
S31508003C2045602046BDE8F047FEF786B968000020E3
S31508003C300080001010180C80074B52221A60D0F82A
S31508003C40042822F00102C0F8042891F8B20081F88D
S31508003C5046000846FEF770B96800002002494FF092
S31508003C60A040FFF78BBE00002407002070B506466B
S31508003C700D460846FEF7D6FD24490446072824D2F1
S31508003C80DFE800F023120F042323210061200860D7
S31508003C90D6F8000895F8451040EA0110C6F800085D
S31508003CA013E00020E86510E0D6F8000940F400109B
S31508003CB0C6F80009D6F8000B40F40010C6F8000B49
S31508003CC06C20086070BD77200860002229463046BF
S31508003CD0FFF7C0FD052C18BF70BD012495F85800E4
S31508003CE00128D8BF70BD05EB8400016900291CBFF7
S31508003CF0806A002804D0224629463046FFF7AAFDE6
S31508003D0095F85800641CA042EDDC70BD68000020E0
S31508003D10064A08465321116090F8461080F8B210FA
S31508003D20062180F84610FEF707B900006800002053
S31508003D300020704770B5044648880D46030AC1B28C
S31508003D40E888454EA4F866004FF0000CB0B194F828
S31508003D504620032A0AD8E26C42B1C4F84CC094F84B
S31508003D604720904228BF1046A4F86600C4F860C0F1
S31508003D70A4F864C06878062805D056E0A4F864C09C
S31508003D800020E66570BD012B04D0022B13D0032B4F
S31508003D901FD04AE02A4601212046FDF7DAFD002811
S31508003DA03ED0011D2166B4F866100079814235D2ED
S31508003DB0A4F8641034E02A4602212046FDF7C9FD1E
S31508003DC070B3011D2166B4F86610C088814225D2F9
S31508003DD0EEE711B105290AD013E020482066B4F8A9
S31508003DE06600042828BF0420A4F8640018E01C49CB
S31508003DF0087830B12166B4F86610814238BF0846A3
S31508003E00F2E72A4603212046FDF7A3FD40B1011D2E
S31508003E102166B4F8661000798142C9D30146C7E71E
S31508003E20206E10B10020E66570BD2A46FF212046A7
S31508003E30FDF78FFD002804BF012070BD00F10A01BF
S31508003E4021664088B4F86610A0F10A02914228BF9C
S31508003E501146A4F86410E5E7911D00086C000020DF
S31508003E60600E00207047FEE700F0EAB902490148F3
S31508003E700860FEE70400FA050CED00E0FDF7D2BB8A
S31508003E80704700F064BA00F0C2BA000070B50E4E72
S31508003E9004463068A8B90125A5610021E561C4E991
S31508003EA0081104F12002111F081FFFF797FC0020D4
S31508003EB0C4E9020006490548C4E90001C4E9040149
S31508003EC03560002070BD0000A8000020000095D9CC
S31508003ED0EE1FCC0130B583B00D4604460021684676
S31508003EE000F0D3FE2046FDF7ABFE68B1846834EADD
S31508003EF00501816004BF0420FDF73CFB684600F01D
S31508003F00CBFE03B0204630BD684600F0C5FE03B0C0
S31508003F10002030BD2DE9F0418AB00546FDF790FE38
S31508003F200446002108A800F0B0FE002C60D0424EDE
S31508003F30206858B1706800F47F41B1F5007F01BF71
S31508003F40C0F34210A842284600F02EF9E06818B9D6
S31508003F500021284600F026FB38A02022694602F0F8
S31508003F60CDF80027394B00281ABF0020EC461F70F1
S31508003F7010D01CF8001003EB400200299170D7708E
S31508003F801CBF401C2028F4DB022101EB40001870FE
S31508003F9003205870002202212046FDF7DAFC074666
S31508003FA0206828BB27B368212046D4F80C80FCF784
S31508003FB076F90020FF22C4F80C8004EB4001401C6F
S31508003FC081F8382081F839200428F6DB65712271DA
S31508003FD0F87A10F0400FB4F8500014BF40F0010012
S31508003FE020F00100A4F850002846FDF7DDFF30B1A7
S31508003FF008A800F051FE0AB00020BDE8F0817068FC
S3150800400000F47F41B1F5007F04BFC0F34211A94215
S3150800401008D1C0B24FF002024FF00101A0F1010031
S31508004020FDF7D7FC0120206008A800F035FE0AB08D
S315080040300120BDE8F0810000140000205553425FBE
S315080040404E414D455F434F4E46494700600E00209E
S3150800405070B50C46C0F3421100F01F0682B0154633
S315080040600846FDF7EDFD00281EBF01680029042E4D
S3150800407048DAFF2D12D0691E032943D2FF2C02D03D
S31508004080611E03293ED200EB460696F83810FF2932
S3150800409004BF96F83910FF2934D102E0FF2CEFD17E
S315080040A030E0FF2D03D000EB8501096951B3FF2CE1
S315080040B003D000EB8401096921B3FF2D03D000EB7F
S315080040C08501896AF1B9FF2C03D000EB8401896A5E
S315080040D0C1B10021FF2D09D000EB410292F838301A
S315080040E0AB421CBF92F83920AA420BD0FF2C0DD048
S315080040F000EB410292F83830A3421CBF92F83920EF
S31508004100A24203D102B04FF0000070BD01F10101D7
S315080041100429DFDB0021684600F0B7FD86F8385031
S3150800412086F83940684600F0B7FD02B0012070BD38
S3150800413030B5C0F3421100F01F0583B00846FDF7FD
S315080041407FFD04001CBF2068002801D0042D02DB77
S3150800415003B0002030BD0021684600F096FD04EB50
S315080041604501002291F83800FF2806D004EB8000AC
S31508004170006910B1026042608260FF2381F838301E
S3150800418091F83900FF2806D004EB8000006910B1C9
S3150800419002604260826081F83930684600F07CFD32
S315080041A003B0012030BD0000F0B583B00546FDF729
S315080041B047FD040004BF03B0F0BD0021684600F0C7
S315080041C064FD2068C8B11C4800218288D6B202F472
S315080041D07F40C2F34213A6F1010CB0F5007F04BF7D
S315080041E0AB428C450FD004EB410292F83870FF2F92
S315080041F004BF92F83920FF2A05D0684600F04CFD26
S3150800420003B00020F0BD491C0429E6DBB0F5007FA9
S3150800421002BFAB426046FDF711FD0020206028462C
S31508004220FEF78AFB0548FCF7C9FD684600F034FD31
S3150800423003B00120F0BD000014000020A086010094
S315080042402DE9F74F8A4684B0C0F3421100F01F04E7
S3150800425008460391FDF7F4FC5FEA00091FD0042C19
S315080042601DDA99F84600052819D109EB440090F89B
S3150800427038B0BBF1FF0F12D009EB8B000290006932
S3150800428068B10021684600F000FD0024069EA0469D
S31508004290002E88BF09EB0B074BD924B115E007B0F0
S315080042A00020BDE8F08F02980069D0E900218A4213
S315080042B002BF8268002A002405D001EB011100EB39
S315080042C0810000F10C04002C3AD097F820002168F0
S315080042D00D1AAE4238BF3546211D01442A465046BE
S315080042E0FBF72CFF97F82000761B2844C0B287F806
S315080042F020002168AA44A844884217D1002287F8DA
S315080043002020029814460069D0E900318B4204BF88
S315080043108368002B06D001F10101082908BF002196
S31508004320C0E9011259464846FDF792FC06988045B1
S31508004330B3D3684600F0B0FC07B04046BDE8F08F3E
S31508004340012000FA0BF10398FDF701FBF1E72DE9CF
S31508004350F047C0F3421100F01F054FF47A7408467F
S31508004360FDF76EFC5FEA000844D0042D42DA98F89F
S315080043704600052845D108EB450090F83990B9F173
S31508004380FF0F37D008EB89063069002832D0D0E90C
S3150800439000218A423CBF501A00F1080704D38068FE
S315080043A0002814BF0827571A3269D2E90001884243
S315080043B004BF9068002827D0002C1EDD49464046D9
S315080043C0FEF708F96420FCF714FD3269D2E90010FB
S315080043D081423CBF081A00F1080504D39268002AF6
S315080043E014BF08250D1AAF420CBF641E4FF47A7429
S315080043F02F46D9E70020BDE8F087002111605160FB
S3150800440091600120BDE8F087002CFADCF5E72DE97C
S31508004410F74F8946C0F3421100F01F0484B0002507
S315080044200846FDF70DFC07004FD0042C4DDA069818
S31508004430002804BF07B0BDE8F08FB9F1000F44D0DB
S3150800444097F84600052840D107EB440090F8390054
S315080044500290FF2839D007EB8000039000690028F6
S3150800446033D00021684600F010FC02984FF0000B8C
S31508004470069E5C4607EB000A039800690268511C11
S31508004480082908BF00218368002B18BF4FF00008D1
S3150800449020D0B8F1000F2AD09AF82440B44228BF99
S315080044A034462CB12246494608F10400FBF746FE7D
S315080044B09AF82400A04288BF4FF0010B361BA1448E
S315080044C02544C8F80040002438E007B04FF0FF3014
S315080044D0BDE8F08F43688B4204BF01238360016007
S315080044E002EB021100EB810000F10C08D1E7641C15
S315080044F0642C09D9069886422BD1039800210069B5
S3150800450001604160816024E00120FCF7CBFD00BB1F
S31508004510684600F081FB002804BF97F84600052886
S3150800452017D138460299FEF755F8684600F096FB0B
S315080045303220FCF75EFC684600F084FBBBF1000FF6
S315080045409AD097F84600052803D138460299FEF70F
S3150800455041F8684600F0A0FB07B02846BDE8F08F92
S3150800456030B583B00D4604460021684600F08DFB41
S315080045702046FDF765FB70B1846844EA0501816051
S31508004580A1421CBF0420FCF7A1FD684600F084FB8D
S3150800459003B0204630BD684600F07EFB03B000201D
S315080045A030BD00000928C4BF1C2070472DE9F04320
S315080045B00E46014623A083B0D0E90020CDE90020AD
S315080045C001F131008DF8030000250846FDF738FB98
S315080045D0070002BF1C2003B0BDE8F083002E08BF09
S315080045E01A4E3046FEF736FC5FEA00091CBF03B0D8
S315080045F0BDE8F083DFF85480464508BFFE601CD04E
S315080046003078344628B16088044405442078002868
S31508004610F9D12C1D012322463146684601F073FD67
S31508004620F868404518BF02F0FAFA204602F0F9FA8F
S3150800463022463146F860FBF781FD03B04846BDE8DF
S31508004640F08300005553420000000000A8710008DE
S315080046500160002141608160C16001614161816141
S31508004660C161016241628162C0E90B11C0E90D11A5
S31508004670704700002DE9F04104460068069E1F4673
S31508004680006890460D46002808BF13A001686160BF
S315080046904068A060002239463046FDF7E9FD2061F2
S315080046A0286960612068B0F850102183B0F850106E
S315080046B0491CA0F85010A88A608348F00200666278
S315080046C0C4E9070700200246E0602021201DFDF707
S315080046D0CFFDE060BDE8F0814D53706B7456310034
S315080046E070B50446C56800200246E0602021201DFA
S315080046F0FDF7BEFDE560A8420CBF0124002424B9DD
S315080047002A46014602A002F061FA204670BD000062
S315080047104865616465722043524320636865636B2C
S31508004720206661696C65643A20636F6D707574659F
S31508004730643A203078253038583B20676F743A2021
S315080047403078253038580A0010B50446D4E90810E0
S3150800475018B900291CBF002010BD0022FDF788FDEE
S31508004760226982420CBF012400241CB9014602A01A
S3150800477002F02CFA204610BD5061796C6F616420F6
S3150800478043524320636865636B206661696C6564A0
S315080047903A20636F6D70757465643A2030782530F9
S315080047A038583B20676F743A203078253038580AD5
S315080047B0000000002DE9F04104460068069D1E46EB
S315080047C0006817468846002808BF11A0016861607E
S315080047D04068A060002231462846FDF749FDC4E935
S315080047E004082068B0F850102183B0F85010491C0E
S315080047F0A0F8501000206083E761E060C4E908650E
S3150800480002462021201DFDF733FDE060BDE8F0815A
S315080048104D53706B7456310030B50D4693B004464F
S31508004820016802A8FFF714FF0020009044F2010077
S3150800483045EA00020023194602A8FFF7BBFF02A9B2
S31508004840206801F04EF813B030BD0121816370472E
S315080048502DE9F05F071D0446B9464FF0020B4FF0ED
S31508004860060A4FF00108A06B072880F0BC80DFE835
S3150800487000F0A0040D415379A900204600F0E8F89D
S315080048802020C4F838B0C4E90A90ECE7206804F19F
S315080048902C02111FD0F80CC0406803686046984780
S315080048A0002818BFE06A7DD0C0F12005002D1BDD69
S315080048B0082D34BF2E46082632464EA1201DFBF78A
S315080048C011FC88B132464DA1201DFBF70BFC58B1EF
S315080048D06A1E791C3846FBF776FCA06A401EA06261
S315080048E0E06A401CE062DFE7082D28BF0320BAD340
S315080048F0A063B8E7206804F12C02111FD0F80CC099
S315080049004068036860469847002852D0E06A002845
S3150800491008BF0420A7D1EBE72046FFF7E1FEB0B1B8
S3150800492020682146C368806802681846904770B1B7
S31508004930206AC0B3606A90B1FCF737FAC4E90C0183
S315080049400520A063606AA062206AE0628BE7207F88
S3150800495010F0010F03D104212046FFF75DFFC4F8CC
S31508004960388080E7FCF721FAD4E90C2305460E4681
S31508004970801A61EB0301FEF7ADF8224A801A71F13D
S31508004980000019D2C4E90C56206804F12C02111F44
S31508004990D0F80CC0406803686046984710B1E06AD2
S315080049A0002801E005E001E07FF45DAFC4F838A017
S315080049B059E70120BDE8F09F13A002F007F9C4F8F3
S315080049C0388050E72046FFF7BFFE38B120682146F9
S315080049D0C3688068426818469047C0E708212046A1
S315080049E0FFF71AFFBBE715A002F0F0F80020BDE8B4
S315080049F0F09F00004D536462675631004D53706B4B
S31508004A00745631000087930352784572726F723A72
S31508004A10205061796C6F616420496E7465724368D1
S31508004A206172616374657254696D656F757420652A
S31508004A30786365656465640A0000000052785374FB
S31508004A406174653D554E4B4E4F574E21210A000065
S31508004A5010B50446406A002808BF10BD20682146E4
S31508004A60C36880688268184690470020606210BD57
S31508004A702DE9F04304465B4883B00D46D0F810098B
S31508004A8000287DD05848216908180AD0A0F5FF509B
S31508004A90B0F5803F15D0534801F039FF042871D08E
S31508004AA09CE0504801F033FF042869D101214D48A4
S31508004AB001F084FF002863D101214A4801F02AFE4B
S31508004AC069E0DFF82891D9F800000028D8BFFCF77C
S31508004AD057FDDFF81C81D8F8000028B9FCF750FD0F
S31508004AE0D8F80000002875D0D9F80000002871DD34
S31508004AF0D8F800400027A07904280CD1394801F0DD
S31508004B0006FF042812D0D9F800203648D8F8001035
S31508004B1001F030FF0127D8F8000002F080F80020E5
S31508004B20C8F8000003B03846BDE8F08304F51272F1
S31508004B3000212C4801F0D0FE002814BF00250125CD
S31508004B4004F553720121274801F0C6FE00280CBF60
S31508004B50012400240021234801F030FF002814BF57
S31508004B600126002601211F4801F028FF002818BF4A
S31508004B70012035EA060108BF34EA0000CBD1C2E7B6
S31508004B802CE0FFE72946174801F018FF30BB2946F5
S31508004B90144801F0BFFD002804BF03B0BDE8F08348
S31508004BA004F11403D4E90212CDE900120293D4E900
S31508004BB0002301460220FCF715FA2076012806D1C3
S31508004BC004F11400FCF710FA20760128F8D010F04A
S31508004BD0FF0F03D003B00020BDE8F08303B0012027
S31508004BE0BDE8F083AC180020B0DFFFBF5C000020F2
S31508004BF05800002010B4DDE9014C80E81E100021A1
S31508004C004161F721017610BC704710B5044614308F
S31508004C10FCF7E6F9204610BD007800F00100704761
S31508004C2062B60120704772B601207047007810F00E
S31508004C30010F18BF7047EFF3108062B600BF80F30C
S31508004C4010887047017811F0010F08BF7047AFF35D
S31508004C500080EFF31081016072B67047017811F099
S31508004C60010F18BF7047EFF31081016062B67047F5
S31508004C70007810F0010F18BF704762B67047EFF35F
S31508004C801080012121EA0000704700B50246416004
S31508004C90FFF7DFFF104600BD00B50146FFF7E8FF46
S31508004CA0084600BD2DE9F04F0446D0F804088DB03B
S31508004CB0216020F00200C4F804085448C4F8080823
S31508004CC0534B54A1A3F1A40204F50160009400F02B
S31508004CD0E0FD04F66C1000F0F1FA30214F4801F0BF
S31508004CE082FE4F48099001F011F95FEA000B7DD06A
S31508004CF0099900206A460860099988620999C86274
S31508004D00099908630999486309998863594609986E
S31508004D1000F0CEFFDBE90210002789683E463C46D4
S31508004D20884785698146BA465DF82A10B1F1FF3F82
S31508004D3053D04FEA4A11099A0B9101214FF0000806
S31508004D4091625DF82A10012000FA08F001423FD16D
S31508004D500B9800EB080100202A6906EB460302EBD4
S31508004D608302936852689A1A521C8C42DCBFA318B5
S31508004D70994214DC081BAA68296800FB0210014640
S31508004D800A905846FEF7E4FB28B1DBE902200A99A7
S31508004D90526A90471CE0234801F018FF18E01444B3
S31508004DA0EA68761CB24202D90028D5D010E078B954
S31508004DB0D9F814207F1CBA4208D9D9F8182007EB6D
S31508004DC0870302EB83050028C6D001E0FCF7D8FB71
S31508004DD008F10108B8F1200FB3D30AF1010ABAF1B4
S31508004DE0090FA1D30998806A002800E00AE01CBFD1
S31508004DF0099800F079FE584601F07AF85FEA000B48
S31508004E007FF476AF0DB00020BDE8F08FFFFFFE00FF
S31508004E10046D00084D53646267563100AC180020D3
S31508004E20E8060020B37300084A6A031D9A4207D1B0
S31508004E30D0F8042822F00102C0F8042800204862AD
S31508004E400120704700B50A7F85B012F0020F09D11C
S31508004E5001220292082302AACDE900230023012297
S31508004E6000F06AF805B0012000BD0120704710B5B2
S31508004E70002301224C6A00F053F854B1207810F050
S31508004E80010F06D1002164222020FDF76BFDFEF7F5
S31508004E90EDFF012010BD000070B50546888B0C4655
S31508004EA010F4804F1CBF012070BDD5F8040840F0EF
S31508004EB00200C5F80408207F10F0020F19BF01216F
S31508004EC015480C2115484A1E28BF63691BD301687B
S31508004ED0994215D1816805EB610311F0010F08BFEE
S31508004EE0426802D0196840680A5821461846904711
S31508004EF0024600232146284600F012F8012070BD1C
S31508004F000C30521EE3D200231A462146284600F0EA
S31508004F1007F8012070BD0000F86C0008686C0008EE
S31508004F2000B583B04FF0000CCDF800C0CDF804C032
S31508004F3000F002F803B000BD2DE9F04192B09C469E
S31508004F400D461346DDE91868C9690022074611F0BF
S31508004F50010F1CBF12B0BDE8F08141F0010111F448
S31508004F60005FE96118BF4FF40052002B14BF42F4EA
S31508004F70004442F48044BCF1000F08BF44F0010429
S31508004F80002B04BF0026B04607F5016102A8FFF70B
S31508004F905FFB43462246291D02A80096FFF76AFBD7
S31508004FA002A907F5016000F09CFC12B0BDE8F0818B
S31508004FB02DE9F0414C6A074684B02068884620F0FF
S31508004FC0030507F66C1000F071F838B107F66C1097
S31508004FD000F0E4F804B00020BDE8F081216800295B
S31508004FE014BF0026012602AA684601F007F840B356
S31508004FF00099042201ABC8688968D1F80CC0294613
S31508005000E047FEF7F3FB0199884201D1012500E04C
S31508005010002555EA06004FF000031CD00122414640
S315080050203846FFF77DFF0021C8222020FDF79AFCAD
S315080050300D4801F03FFC55B13846216800F0D4FB15
S315080050400EE0FEF7D3FB29688842E1D1DEE7384651
S3150800505000F0D2F904E0002241463846FFF760FF27
S3150800506004B00120BDE8F081AC18002030B5054633
S31508005070087F93B00C4610F0020F02D013B001203F
S3150800508030BD02A8FEF732FA012814BF0022012219
S31508005090402302A8CDE90003002321462846FFF74E
S315080050A04BFFEBE700F5016000F018BC016800292A
S315080050B006BF406800280120704700002DE9F04728
S315080050C08AB09846174689460446022B01D2802F95
S315080050D005D000F063F80AB00020BDE8F087E06864
S315080050E008B3C26880688168104688470646007813
S315080050F010F0020F18BF25681CD0A0684B46CDE9F2
S315080051000070294602A86268FFF774FD414602A8A6
S31508005110FFF7AEFC70B3204800F0E6FC204600F02E
S31508005120CDF801242AE0204600F0C8F80AB001208C
S31508005130BDE8F087606801F074FD050016D0E068E8
S31508005140D4E90012D0F80CA080682B46D0F80CC021
S315080051505046E0470028D0D1204600F01FF82846E0
S3150800516001F05DFD0AB00020BDE8F087204600F09A
S3150800517015F8F7E7204600F011F80024307810F00B
S31508005180020F04BF284601F04AFD02A8FFF73DFDBD
S315080051900AB02046BDE8F087E806002010B50446A8
S315080051A00068002808BF10BD032300226168FBF7CA
S315080051B0BFFF084800F098FC06490020086088628E
S315080051C0C8620863486388632046BDE8104000F05B
S315080051D075B80000E80600202DE9F0478EB016469F
S315080051E004460D460AAA684600F008FF002838D08B
S315080051F00098C26880688168104688470746009804
S315080052000DF12C090DF13008C2688068DDF828A078
S3150800521081681046884743464A46514601F08AFC4B
S31508005220002804BF0EB0BDE8F087B9690B981022B4
S3150800523000EB800002EB800009580C9800EB400058
S3150800524051F82000194988421CBF194A90420BD0D0
S31508005250B0F1804F1EBFA0F14022B2F130021548CE
S3150800526002E000200A950090216889B1E268009B57
S315080052709A4204BFA268824206D160680144A942E4
S3150800528004BF304460600CD00EB00020BDE8F08743
S31508005290C4E90056009901AAC4E90201064800F0CB
S315080052A007FD0EB00120BDE8F0870000101000C011
S315080052B030400140201000C0E806002000210160AF
S315080052C04160C160034801608162C1620163416354
S315080052D081637047E806002070B50C4605460E6ADD
S315080052E0006863232022091DFCF76BFF20280DD1D7
S315080052F0206A00281CBF616A002909D04FF06303A1
S3150800530032462868FCF75DFFB04201D0002070BD28
S315080053102868FCF739FF012070BD70B5144612687D
S315080053200D466AB129680068FCF7AAFD0028DCBFAB
S31508005330002070BD2968014429602168081A206088
S31508005340012070BD00B50B460246FFF78EFD00280A
S3150800535008BF00BD92F8040810F0010F03D1186ABF
S31508005360B0F5006F01D9002000BD101D5862D2F8B3
S31508005370040840F00100C2F80408012000BD00003E
S3150800538030B5044689B00D4600F66C10FFF78EFE60
S3150800539030B104F66C10FFF701FF09B0002030BDEC
S315080053A00C480023012281690291C16903910121F8
S315080053B00491016A0591406A069002200790182117
S315080053C002A8CDE9000129462046FFF7B5FD09B038
S315080053D0012030BD140000200A8BD0F808389A4204
S315080053E004BF0020704710B5C0F80828FFF754FD21
S315080053F0002818BF012010BD2DE9F04395B0002400
S315080054000DF14C08CDE912848146274620216846CD
S3150800541000F0E4FE002812BF0AAE15B0BDE8F0831E
S31508005420684601F034F80546042212A9684601F0D8
S3150800543032F8FEF7DBF9129A1168884206D1294636
S3150800544012A0FBF755FE46F82450641C082C09D018
S31508005450CDE9128701226FF00041684601F072F823
S315080054600028DDD1684600F0EDFE0028D8D1002CD2
S3150800547002BF002015B0BDE8F08348460A9900F03F
S31508005480B3F915B00120BDE8F08300002A2A2A20C6
S315080054906E5849502050726F6772616D20666F753D
S315080054A06E64206174203078253038780D0A000043
S315080054B070B54A6AADF5816D0E4654680546B4F571
S315080054C0806F88BF4FF4806405F66C10FFF7EEFD19
S315080054D038B105F66C10FFF761FE0DF5816D0020F9
S315080054E070BD1068012302AA2146FBF721FE02A817
S315080054F0CDE900040023012231462846FFF71CFDAA
S315080055000DF5816D012070BD30B5044683B00D469A
